{
  "_format": "hh-sol-artifact-1",
  "contractName": "Certification",
  "sourceName": "contracts/Certification.sol",
  "abi": [
    {
      "inputs": [],
      "stateMutability": "payable",
      "type": "constructor"
    },
    {
      "anonymous": false,
      "inputs": [
        {
          "indexed": true,
          "internalType": "address",
          "name": "from",
          "type": "address"
        },
        {
          "indexed": false,
          "internalType": "uint256",
          "name": "timestamp",
          "type": "uint256"
        },
        {
          "indexed": false,
          "internalType": "string",
          "name": "message",
          "type": "string"
        }
      ],
      "name": "NewCheck",
      "type": "event"
    },
    {
      "inputs": [
        {
          "internalType": "string",
          "name": "_message",
          "type": "string"
        }
      ],
      "name": "checkIn",
      "outputs": [],
      "stateMutability": "nonpayable",
      "type": "function"
    },
    {
      "inputs": [],
      "name": "getAllCheckedIns",
      "outputs": [
        {
          "components": [
            {
              "internalType": "address",
              "name": "attendee",
              "type": "address"
            },
            {
              "internalType": "string",
              "name": "message",
              "type": "string"
            },
            {
              "internalType": "uint256",
              "name": "timestamp",
              "type": "uint256"
            }
          ],
          "internalType": "struct Certification.CheckedIn[]",
          "name": "",
          "type": "tuple[]"
        }
      ],
      "stateMutability": "view",
      "type": "function"
    },
    {
      "inputs": [],
      "name": "getTotalCheckIns",
      "outputs": [
        {
          "internalType": "uint256",
          "name": "",
          "type": "uint256"
        }
      ],
      "stateMutability": "view",
      "type": "function"
    },
    {
      "inputs": [
        {
          "internalType": "address",
          "name": "",
          "type": "address"
        }
      ],
      "name": "lastCheckInAt",
      "outputs": [
        {
          "internalType": "uint256",
          "name": "",
          "type": "uint256"
        }
      ],
      "stateMutability": "view",
      "type": "function"
    }
  ],
  "bytecode": "0x608060405262000033604051806060016040528060318152602001620014aa603191396200005b60201b620006a91760201c565b60644442620000439190620001a8565b6200004f919062000245565b600181905550620002ec565b620000fb8160405160240162000072919062000168565b6040516020818303038152906040527f41304fac000000000000000000000000000000000000000000000000000000007bffffffffffffffffffffffffffffffffffffffffffffffffffffffff19166020820180517bffffffffffffffffffffffffffffffffffffffffffffffffffffffff8381831617835250505050620000fe60201b60201c565b50565b60008151905060006a636f6e736f6c652e6c6f679050602083016000808483855afa5050505050565b600062000134826200018c565b62000140818562000197565b9350620001528185602086016200020f565b6200015d81620002db565b840191505092915050565b6000602082019050818103600083015262000184818462000127565b905092915050565b600081519050919050565b600082825260208201905092915050565b6000620001b58262000205565b9150620001c28362000205565b9250827fffffffffffffffffffffffffffffffffffffffffffffffffffffffffffffffff03821115620001fa57620001f96200027d565b5b828201905092915050565b6000819050919050565b60005b838110156200022f57808201518184015260208101905062000212565b838111156200023f576000848401525b50505050565b6000620002528262000205565b91506200025f8362000205565b925082620002725762000271620002ac565b5b828206905092915050565b7f4e487b7100000000000000000000000000000000000000000000000000000000600052601160045260246000fd5b7f4e487b7100000000000000000000000000000000000000000000000000000000600052601260045260246000fd5b6000601f19601f8301169050919050565b6111ae80620002fc6000396000f3fe608060405234801561001057600080fd5b506004361061004c5760003560e01c8063ca114cdb14610051578063cc5a7ce61461006f578063dd1f0d591461008d578063f21bb4c5146100bd575b600080fd5b6100596100d9565b6040516100669190610d15565b60405180910390f35b61007761022a565b6040516100849190610e19565b60405180910390f35b6100a760048036038101906100a291906109c3565b610296565b6040516100b49190610e19565b60405180910390f35b6100d760048036038101906100d291906109ec565b6102ae565b005b60606002805480602002602001604051908101604052809291908181526020016000905b8282101561022157838290600052602060002090600302016040518060600160405290816000820160009054906101000a900473ffffffffffffffffffffffffffffffffffffffff1673ffffffffffffffffffffffffffffffffffffffff1673ffffffffffffffffffffffffffffffffffffffff1681526020016001820180546101869061100a565b80601f01602080910402602001604051908101604052809291908181526020018280546101b29061100a565b80156101ff5780601f106101d4576101008083540402835291602001916101ff565b820191906000526020600020905b8154815290600101906020018083116101e257829003601f168201915b50505050508152602001600282015481525050815260200190600101906100fd565b50505050905090565b600061026d6040518060400160405280601c81526020017f5765206861766520256420746f74616c20636865636b2d696e27732100000000815250600054610742565b61028e604051806060016040528060278152602001611152602791396106a9565b600054905090565b60036020528060005260406000206000915090505481565b42601e600360003373ffffffffffffffffffffffffffffffffffffffff1673ffffffffffffffffffffffffffffffffffffffff168152602001908152602001600020546102fb9190610f36565b1061033b576040517f08c379a000000000000000000000000000000000000000000000000000000000815260040161033290610df9565b60405180910390fd5b42600360003373ffffffffffffffffffffffffffffffffffffffff1673ffffffffffffffffffffffffffffffffffffffff1681526020019081526020016000208190555060016000808282546103919190610f36565b925050819055506103d76040518060400160405280601281526020017f25732068617320636865636b656420696e210000000000000000000000000000815250336107de565b600260405180606001604052803373ffffffffffffffffffffffffffffffffffffffff16815260200183815260200142815250908060018154018082558091505060019003906000526020600020906003020160009091909190915060008201518160000160006101000a81548173ffffffffffffffffffffffffffffffffffffffff021916908373ffffffffffffffffffffffffffffffffffffffff16021790555060208201518160010190805190602001906104969291906108a3565b50604082015181600201555050606460015442446104b49190610f36565b6104be9190610f36565b6104c8919061103c565b60018190555061050f6040518060400160405280601681526020017f52616e646f6d20232067656e6572617465643a20256400000000000000000000815250600154610742565b60326001541015610656576105596040518060400160405280600781526020017f257320776f6e2100000000000000000000000000000000000000000000000000815250336107de565b6000655af3107a40009050478111156105a7576040517f08c379a000000000000000000000000000000000000000000000000000000000815260040161059e90610db9565b60405180910390fd5b60003373ffffffffffffffffffffffffffffffffffffffff16826040516105cd90610d00565b60006040518083038185875af1925050503d806000811461060a576040519150601f19603f3d011682016040523d82523d6000602084013e61060f565b606091505b5050905080610653576040517f08c379a000000000000000000000000000000000000000000000000000000000815260040161064a90610dd9565b60405180910390fd5b50505b3373ffffffffffffffffffffffffffffffffffffffff167f108eb3ea2ff2c2cd7c072bdd7f18aa1f4ef35f06b17bc415c7fb1c90865e3c7f428360405161069e929190610e34565b60405180910390a250565b61073f816040516024016106bd9190610d37565b6040516020818303038152906040527f41304fac000000000000000000000000000000000000000000000000000000007bffffffffffffffffffffffffffffffffffffffffffffffffffffffff19166020820180517bffffffffffffffffffffffffffffffffffffffffffffffffffffffff838183161783525050505061087a565b50565b6107da8282604051602401610758929190610d89565b6040516020818303038152906040527f9710a9d0000000000000000000000000000000000000000000000000000000007bffffffffffffffffffffffffffffffffffffffffffffffffffffffff19166020820180517bffffffffffffffffffffffffffffffffffffffffffffffffffffffff838183161783525050505061087a565b5050565b61087682826040516024016107f4929190610d59565b6040516020818303038152906040527f319af333000000000000000000000000000000000000000000000000000000007bffffffffffffffffffffffffffffffffffffffffffffffffffffffff19166020820180517bffffffffffffffffffffffffffffffffffffffffffffffffffffffff838183161783525050505061087a565b5050565b60008151905060006a636f6e736f6c652e6c6f679050602083016000808483855afa5050505050565b8280546108af9061100a565b90600052602060002090601f0160209004810192826108d15760008555610918565b82601f106108ea57805160ff1916838001178555610918565b82800160010185558215610918579182015b828111156109175782518255916020019190600101906108fc565b5b5090506109259190610929565b5090565b5b8082111561094257600081600090555060010161092a565b5090565b600061095961095484610e95565b610e64565b90508281526020810184848401111561097157600080fd5b61097c848285610fc8565b509392505050565b6000813590506109938161113a565b92915050565b600082601f8301126109aa57600080fd5b81356109ba848260208601610946565b91505092915050565b6000602082840312156109d557600080fd5b60006109e384828501610984565b91505092915050565b6000602082840312156109fe57600080fd5b600082013567ffffffffffffffff811115610a1857600080fd5b610a2484828501610999565b91505092915050565b6000610a398383610c92565b905092915050565b610a4a81610f8c565b82525050565b610a5981610f8c565b82525050565b6000610a6a82610ed5565b610a748185610ef8565b935083602082028501610a8685610ec5565b8060005b85811015610ac25784840389528151610aa38582610a2d565b9450610aae83610eeb565b925060208a01995050600181019050610a8a565b50829750879550505050505092915050565b6000610adf82610ee0565b610ae98185610f14565b9350610af9818560208601610fd7565b610b0281611129565b840191505092915050565b6000610b1882610ee0565b610b228185610f25565b9350610b32818560208601610fd7565b610b3b81611129565b840191505092915050565b6000610b53603483610f25565b91507f547279696e6720746f207769746864726177206d6f7265206d6f6e657920746860008301527f616e2074686520636f6e7472616374206861732e0000000000000000000000006020830152604082019050919050565b6000610bb9602783610f25565b91507f4661696c656420746f207769746864726177206d6f6e65792066726f6d20636f60008301527f6e74726163742e000000000000000000000000000000000000000000000000006020830152604082019050919050565b6000610c1f600083610f09565b9150600082019050919050565b6000610c39602a83610f25565b91507f4d7573742077616974203330207365636f6e6473206265666f7265206e65787460008301527f20636865636b20696e2e000000000000000000000000000000000000000000006020830152604082019050919050565b6000606083016000830151610caa6000860182610a41565b5060208301518482036020860152610cc28282610ad4565b9150506040830151610cd76040860182610ce2565b508091505092915050565b610ceb81610fbe565b82525050565b610cfa81610fbe565b82525050565b6000610d0b82610c12565b9150819050919050565b60006020820190508181036000830152610d2f8184610a5f565b905092915050565b60006020820190508181036000830152610d518184610b0d565b905092915050565b60006040820190508181036000830152610d738185610b0d565b9050610d826020830184610a50565b9392505050565b60006040820190508181036000830152610da38185610b0d565b9050610db26020830184610cf1565b9392505050565b60006020820190508181036000830152610dd281610b46565b9050919050565b60006020820190508181036000830152610df281610bac565b9050919050565b60006020820190508181036000830152610e1281610c2c565b9050919050565b6000602082019050610e2e6000830184610cf1565b92915050565b6000604082019050610e496000830185610cf1565b8181036020830152610e5b8184610b0d565b90509392505050565b6000604051905081810181811067ffffffffffffffff82111715610e8b57610e8a6110fa565b5b8060405250919050565b600067ffffffffffffffff821115610eb057610eaf6110fa565b5b601f19601f8301169050602081019050919050565b6000819050602082019050919050565b600081519050919050565b600081519050919050565b6000602082019050919050565b600082825260208201905092915050565b600081905092915050565b600082825260208201905092915050565b600082825260208201905092915050565b6000610f4182610fbe565b9150610f4c83610fbe565b9250827fffffffffffffffffffffffffffffffffffffffffffffffffffffffffffffffff03821115610f8157610f8061106d565b5b828201905092915050565b6000610f9782610f9e565b9050919050565b600073ffffffffffffffffffffffffffffffffffffffff82169050919050565b6000819050919050565b82818337600083830152505050565b60005b83811015610ff5578082015181840152602081019050610fda565b83811115611004576000848401525b50505050565b6000600282049050600182168061102257607f821691505b60208210811415611036576110356110cb565b5b50919050565b600061104782610fbe565b915061105283610fbe565b9250826110625761106161109c565b5b828206905092915050565b7f4e487b7100000000000000000000000000000000000000000000000000000000600052601160045260246000fd5b7f4e487b7100000000000000000000000000000000000000000000000000000000600052601260045260246000fd5b7f4e487b7100000000000000000000000000000000000000000000000000000000600052602260045260246000fd5b7f4e487b7100000000000000000000000000000000000000000000000000000000600052604160045260246000fd5b6000601f19601f8301169050919050565b61114381610f8c565b811461114e57600080fd5b5056fe2d2d2d2d2d2d2d2d2d2d2d2d2d2d2d2d2d2d2d2d2d2d2d2d2d2d2d2d2d2d2d2d2d2d2d2d2d2d2da2646970667358221220516cd1b3f9992e06456ea7ebe4d03bd5f843b04f4e4fe6462c21cdd5d2c1d8aa64736f6c6343000800003343657274696669636174696f6e2e736f6c20686173207375636365737366756c6c79206265656e206465706c6f79656421",
  "linkReferences": {},
  "deployedLinkReferences": {}
}